:020000020000FC
:102000004F938F939F930F93F89445B14C7F45B9AD
:1020100044B1436044B94BB14F704BB94AB1406FC2
:102020004AB9789490E084E60E94D01091E48FEF52
:102030000E94D010F8944BB14F7040634BB9789424
:102040000E94721091E18FEF0E94D010F8944BB172
:102050004F7040634BB978940E94721090E088E70B
:102060000E94D010F8944BB14F7040634BB97894F4
:102070000E947210F8944BB14F7040624BB9789443
:102080000E94721008E20E9480100CE00E948010F2
:1020900006E00E9480100E94BE100F919F918F91C8
:1020A0004F9108950E9457100E94BD1008950F93FC
:1020B000012F0E946C100F9108958F939F930F939F
:1020C0000F7300640E94801090E088E20E94D0109C
:1020D0000F919F918F9108950F9300680E94801037
:1020E0000F9108958F939F93299A90E084E10E9425
:1020F000D010299884E10E94D0109F918F9108956B
:102100000F931F934F93102F107F000F000F000F9E
:10211000000F2898F8944BB14F70412B4BB978942D
:102120000E947210F8944BB14F70402B4BB97894C9
:102130000E9472104F911F910F9108950F931F935A
:102140004F93102F107F000F000F000F000F289AE1
:10215000F8944BB14F70412B4BB978940E94721098
:10216000F8944BB14F70402B4BB978940E94721089
:1021700028984F911F910F910895E0CF9F938F93CF
:102180000F9301E00E94801097E08FEF0E94D01023
:102190000F918F919F9108952A9A08952A980895F2
:1021A0004F9344E04A95F1F70197D9F74F9108957D
:040000000C9400015B
:100200000E9418010E9400100E94CC102227332760
:100210004427882751E00E9421015130E1F70E94D4
:100220004D010E945D01813011F00E946A01F3CFFF
:100230000F9306E800937A0000E600937C000F918C
:1002400008950F9300917A00006400937A00009162
:100250007A0006FDFCCF009179000695069506957B
:100260000695602F6717B9F0762F633011F450E0D0
:1002700012C0613041F450E02227332744278827F9
:100280000E946A0108C0663011F451E004C0693070
:1002900011F401E080270F9108958F939F930F939E
:1002A0008FEC9EE00EE00A95F1F79A95D9F78A95C2
:1002B000C1F70F919F918F9108952395243649F4AA
:1002C000222733953C3329F433274395443609F4E8
:1002D000442708950F931F93042F10E00E94830179
:1002E0000AE312E00E945210032F13E00E948301E0
:1002F0000EE215E00E945210022F16E00E948301C8
:100300001F910F9108950F931F936F93602F00E03B
:100310006A3018F06A500395FBCF005D0E945210BE
:10032000062F005D13950E9452106F911F910F913F
:0203300008952E
:00000001FF
